{
  "_format": "hh-sol-artifact-1",
  "contractName": "HealthDataToken",
  "sourceName": "contracts/HealthDataToken.sol",
  "abi": [
    {
      "inputs": [],
      "stateMutability": "nonpayable",
      "type": "constructor"
    },
    {
      "inputs": [
        {
          "internalType": "address",
          "name": "spender",
          "type": "address"
        },
        {
          "internalType": "uint256",
          "name": "allowance",
          "type": "uint256"
        },
        {
          "internalType": "uint256",
          "name": "needed",
          "type": "uint256"
        }
      ],
      "name": "ERC20InsufficientAllowance",
      "type": "error"
    },
    {
      "inputs": [
        {
          "internalType": "address",
          "name": "sender",
          "type": "address"
        },
        {
          "internalType": "uint256",
          "name": "balance",
          "type": "uint256"
        },
        {
          "internalType": "uint256",
          "name": "needed",
          "type": "uint256"
        }
      ],
      "name": "ERC20InsufficientBalance",
      "type": "error"
    },
    {
      "inputs": [
        {
          "internalType": "address",
          "name": "approver",
          "type": "address"
        }
      ],
      "name": "ERC20InvalidApprover",
      "type": "error"
    },
    {
      "inputs": [
        {
          "internalType": "address",
          "name": "receiver",
          "type": "address"
        }
      ],
      "name": "ERC20InvalidReceiver",
      "type": "error"
    },
    {
      "inputs": [
        {
          "internalType": "address",
          "name": "sender",
          "type": "address"
        }
      ],
      "name": "ERC20InvalidSender",
      "type": "error"
    },
    {
      "inputs": [
        {
          "internalType": "address",
          "name": "spender",
          "type": "address"
        }
      ],
      "name": "ERC20InvalidSpender",
      "type": "error"
    },
    {
      "inputs": [
        {
          "internalType": "address",
          "name": "owner",
          "type": "address"
        }
      ],
      "name": "OwnableInvalidOwner",
      "type": "error"
    },
    {
      "inputs": [
        {
          "internalType": "address",
          "name": "account",
          "type": "address"
        }
      ],
      "name": "OwnableUnauthorizedAccount",
      "type": "error"
    },
    {
      "inputs": [],
      "name": "ReentrancyGuardReentrantCall",
      "type": "error"
    },
    {
      "anonymous": false,
      "inputs": [
        {
          "indexed": true,
          "internalType": "address",
          "name": "owner",
          "type": "address"
        },
        {
          "indexed": true,
          "internalType": "address",
          "name": "spender",
          "type": "address"
        },
        {
          "indexed": false,
          "internalType": "uint256",
          "name": "value",
          "type": "uint256"
        }
      ],
      "name": "Approval",
      "type": "event"
    },
    {
      "anonymous": false,
      "inputs": [
        {
          "indexed": true,
          "internalType": "address",
          "name": "patient",
          "type": "address"
        },
        {
          "indexed": true,
          "internalType": "address",
          "name": "provider",
          "type": "address"
        },
        {
          "indexed": false,
          "internalType": "string",
          "name": "purpose",
          "type": "string"
        }
      ],
      "name": "ConsentGranted",
      "type": "event"
    },
    {
      "anonymous": false,
      "inputs": [
        {
          "indexed": true,
          "internalType": "address",
          "name": "patient",
          "type": "address"
        },
        {
          "indexed": true,
          "internalType": "address",
          "name": "provider",
          "type": "address"
        }
      ],
      "name": "ConsentRevoked",
      "type": "event"
    },
    {
      "anonymous": false,
      "inputs": [
        {
          "indexed": true,
          "internalType": "address",
          "name": "user",
          "type": "address"
        },
        {
          "indexed": false,
          "internalType": "uint256",
          "name": "reward",
          "type": "uint256"
        }
      ],
      "name": "DataSharingReward",
      "type": "event"
    },
    {
      "anonymous": false,
      "inputs": [
        {
          "indexed": true,
          "internalType": "address",
          "name": "emergencyProvider",
          "type": "address"
        },
        {
          "indexed": true,
          "internalType": "address",
          "name": "patient",
          "type": "address"
        },
        {
          "indexed": false,
          "internalType": "bytes32",
          "name": "accessCode",
          "type": "bytes32"
        }
      ],
      "name": "EmergencyAccess",
      "type": "event"
    },
    {
      "anonymous": false,
      "inputs": [
        {
          "indexed": true,
          "internalType": "address",
          "name": "previousOwner",
          "type": "address"
        },
        {
          "indexed": true,
          "internalType": "address",
          "name": "newOwner",
          "type": "address"
        }
      ],
      "name": "OwnershipTransferred",
      "type": "event"
    },
    {
      "anonymous": false,
      "inputs": [
        {
          "indexed": true,
          "internalType": "address",
          "name": "accessor",
          "type": "address"
        },
        {
          "indexed": true,
          "internalType": "address",
          "name": "patient",
          "type": "address"
        },
        {
          "indexed": false,
          "internalType": "uint256",
          "name": "recordIndex",
          "type": "uint256"
        }
      ],
      "name": "RecordAccessed",
      "type": "event"
    },
    {
      "anonymous": false,
      "inputs": [
        {
          "indexed": true,
          "internalType": "address",
          "name": "patient",
          "type": "address"
        },
        {
          "indexed": true,
          "internalType": "address",
          "name": "provider",
          "type": "address"
        },
        {
          "indexed": false,
          "internalType": "string",
          "name": "recordType",
          "type": "string"
        },
        {
          "indexed": false,
          "internalType": "uint256",
          "name": "timestamp",
          "type": "uint256"
        }
      ],
      "name": "RecordCreated",
      "type": "event"
    },
    {
      "anonymous": false,
      "inputs": [
        {
          "indexed": true,
          "internalType": "address",
          "name": "user",
          "type": "address"
        },
        {
          "indexed": false,
          "internalType": "uint256",
          "name": "reward",
          "type": "uint256"
        }
      ],
      "name": "RewardClaimed",
      "type": "event"
    },
    {
      "anonymous": false,
      "inputs": [
        {
          "indexed": true,
          "internalType": "address",
          "name": "user",
          "type": "address"
        },
        {
          "indexed": false,
          "internalType": "uint256",
          "name": "amount",
          "type": "uint256"
        }
      ],
      "name": "Staked",
      "type": "event"
    },
    {
      "anonymous": false,
      "inputs": [
        {
          "indexed": true,
          "internalType": "address",
          "name": "from",
          "type": "address"
        },
        {
          "indexed": true,
          "internalType": "address",
          "name": "to",
          "type": "address"
        },
        {
          "indexed": false,
          "internalType": "uint256",
          "name": "value",
          "type": "uint256"
        }
      ],
      "name": "Transfer",
      "type": "event"
    },
    {
      "anonymous": false,
      "inputs": [
        {
          "indexed": true,
          "internalType": "address",
          "name": "user",
          "type": "address"
        },
        {
          "indexed": false,
          "internalType": "uint256",
          "name": "amount",
          "type": "uint256"
        },
        {
          "indexed": false,
          "internalType": "uint256",
          "name": "reward",
          "type": "uint256"
        }
      ],
      "name": "Unstaked",
      "type": "event"
    },
    {
      "inputs": [],
      "name": "INITIAL_SUPPLY",
      "outputs": [
        {
          "internalType": "uint256",
          "name": "",
          "type": "uint256"
        }
      ],
      "stateMutability": "view",
      "type": "function"
    },
    {
      "inputs": [],
      "name": "REWARD_PER_RECORD",
      "outputs": [
        {
          "internalType": "uint256",
          "name": "",
          "type": "uint256"
        }
      ],
      "stateMutability": "view",
      "type": "function"
    },
    {
      "inputs": [],
      "name": "STAKING_REWARD_RATE",
      "outputs": [
        {
          "internalType": "uint256",
          "name": "",
          "type": "uint256"
        }
      ],
      "stateMutability": "view",
      "type": "function"
    },
    {
      "inputs": [
        {
          "internalType": "address",
          "name": "owner",
          "type": "address"
        },
        {
          "internalType": "address",
          "name": "spender",
          "type": "address"
        }
      ],
      "name": "allowance",
      "outputs": [
        {
          "internalType": "uint256",
          "name": "",
          "type": "uint256"
        }
      ],
      "stateMutability": "view",
      "type": "function"
    },
    {
      "inputs": [
        {
          "internalType": "address",
          "name": "spender",
          "type": "address"
        },
        {
          "internalType": "uint256",
          "name": "value",
          "type": "uint256"
        }
      ],
      "name": "approve",
      "outputs": [
        {
          "internalType": "bool",
          "name": "",
          "type": "bool"
        }
      ],
      "stateMutability": "nonpayable",
      "type": "function"
    },
    {
      "inputs": [
        {
          "internalType": "address",
          "name": "account",
          "type": "address"
        }
      ],
      "name": "balanceOf",
      "outputs": [
        {
          "internalType": "uint256",
          "name": "",
          "type": "uint256"
        }
      ],
      "stateMutability": "view",
      "type": "function"
    },
    {
      "inputs": [
        {
          "internalType": "address",
          "name": "patient",
          "type": "address"
        },
        {
          "internalType": "string",
          "name": "ipfsHash",
          "type": "string"
        },
        {
          "internalType": "string",
          "name": "recordType",
          "type": "string"
        },
        {
          "internalType": "string",
          "name": "encryptedKey",
          "type": "string"
        }
      ],
      "name": "createRecord",
      "outputs": [],
      "stateMutability": "nonpayable",
      "type": "function"
    },
    {
      "inputs": [
        {
          "internalType": "address",
          "name": "",
          "type": "address"
        }
      ],
      "name": "dataSharingRewards",
      "outputs": [
        {
          "internalType": "uint256",
          "name": "",
          "type": "uint256"
        }
      ],
      "stateMutability": "view",
      "type": "function"
    },
    {
      "inputs": [
        {
          "internalType": "address",
          "name": "patient",
          "type": "address"
        },
        {
          "internalType": "uint256",
          "name": "recordIndex",
          "type": "uint256"
        }
      ],
      "name": "deactivateRecord",
      "outputs": [],
      "stateMutability": "nonpayable",
      "type": "function"
    },
    {
      "inputs": [],
      "name": "decimals",
      "outputs": [
        {
          "internalType": "uint8",
          "name": "",
          "type": "uint8"
        }
      ],
      "stateMutability": "view",
      "type": "function"
    },
    {
      "inputs": [
        {
          "internalType": "address",
          "name": "patient",
          "type": "address"
        },
        {
          "internalType": "bytes32",
          "name": "accessCode",
          "type": "bytes32"
        }
      ],
      "name": "emergencyAccess",
      "outputs": [],
      "stateMutability": "nonpayable",
      "type": "function"
    },
    {
      "inputs": [],
      "name": "generateEmergencyCode",
      "outputs": [
        {
          "internalType": "bytes32",
          "name": "",
          "type": "bytes32"
        }
      ],
      "stateMutability": "nonpayable",
      "type": "function"
    },
    {
      "inputs": [
        {
          "internalType": "uint256",
          "name": "startIndex",
          "type": "uint256"
        },
        {
          "internalType": "uint256",
          "name": "count",
          "type": "uint256"
        }
      ],
      "name": "getAuditTrail",
      "outputs": [
        {
          "components": [
            {
              "internalType": "address",
              "name": "actor",
              "type": "address"
            },
            {
              "internalType": "string",
              "name": "action",
              "type": "string"
            },
            {
              "internalType": "uint256",
              "name": "timestamp",
              "type": "uint256"
            },
            {
              "internalType": "string",
              "name": "details",
              "type": "string"
            },
            {
              "internalType": "address",
              "name": "targetAddress",
              "type": "address"
            }
          ],
          "internalType": "struct HealthDataToken.AuditLog[]",
          "name": "",
          "type": "tuple[]"
        }
      ],
      "stateMutability": "view",
      "type": "function"
    },
    {
      "inputs": [
        {
          "internalType": "address",
          "name": "patient",
          "type": "address"
        }
      ],
      "name": "getPatientRecords",
      "outputs": [
        {
          "components": [
            {
              "internalType": "string",
              "name": "ipfsHash",
              "type": "string"
            },
            {
              "internalType": "string",
              "name": "recordType",
              "type": "string"
            },
            {
              "internalType": "uint256",
              "name": "timestamp",
              "type": "uint256"
            },
            {
              "internalType": "address",
              "name": "provider",
              "type": "address"
            },
            {
              "internalType": "bool",
              "name": "isActive",
              "type": "bool"
            },
            {
              "internalType": "string",
              "name": "encryptedKey",
              "type": "string"
            }
          ],
          "internalType": "struct HealthDataToken.Record[]",
          "name": "",
          "type": "tuple[]"
        }
      ],
      "stateMutability": "view",
      "type": "function"
    },
    {
      "inputs": [
        {
          "internalType": "address",
          "name": "provider",
          "type": "address"
        },
        {
          "internalType": "string",
          "name": "purpose",
          "type": "string"
        },
        {
          "internalType": "uint256",
          "name": "duration",
          "type": "uint256"
        }
      ],
      "name": "grantConsent",
      "outputs": [],
      "stateMutability": "nonpayable",
      "type": "function"
    },
    {
      "inputs": [
        {
          "internalType": "address",
          "name": "patient",
          "type": "address"
        },
        {
          "internalType": "address",
          "name": "provider",
          "type": "address"
        }
      ],
      "name": "hasActiveConsent",
      "outputs": [
        {
          "internalType": "bool",
          "name": "",
          "type": "bool"
        }
      ],
      "stateMutability": "view",
      "type": "function"
    },
    {
      "inputs": [
        {
          "internalType": "address",
          "name": "patient",
          "type": "address"
        }
      ],
      "name": "isEmergencyAccessActive",
      "outputs": [
        {
          "internalType": "bool",
          "name": "",
          "type": "bool"
        }
      ],
      "stateMutability": "view",
      "type": "function"
    },
    {
      "inputs": [],
      "name": "name",
      "outputs": [
        {
          "internalType": "string",
          "name": "",
          "type": "string"
        }
      ],
      "stateMutability": "view",
      "type": "function"
    },
    {
      "inputs": [],
      "name": "owner",
      "outputs": [
        {
          "internalType": "address",
          "name": "",
          "type": "address"
        }
      ],
      "stateMutability": "view",
      "type": "function"
    },
    {
      "inputs": [],
      "name": "renounceOwnership",
      "outputs": [],
      "stateMutability": "nonpayable",
      "type": "function"
    },
    {
      "inputs": [
        {
          "internalType": "address",
          "name": "provider",
          "type": "address"
        }
      ],
      "name": "revokeConsent",
      "outputs": [],
      "stateMutability": "nonpayable",
      "type": "function"
    },
    {
      "inputs": [
        {
          "internalType": "address",
          "name": "",
          "type": "address"
        }
      ],
      "name": "stakes",
      "outputs": [
        {
          "internalType": "uint256",
          "name": "amount",
          "type": "uint256"
        },
        {
          "internalType": "uint256",
          "name": "startTime",
          "type": "uint256"
        },
        {
          "internalType": "uint256",
          "name": "rewardDebt",
          "type": "uint256"
        }
      ],
      "stateMutability": "view",
      "type": "function"
    },
    {
      "inputs": [],
      "name": "symbol",
      "outputs": [
        {
          "internalType": "string",
          "name": "",
          "type": "string"
        }
      ],
      "stateMutability": "view",
      "type": "function"
    },
    {
      "inputs": [],
      "name": "totalStaked",
      "outputs": [
        {
          "internalType": "uint256",
          "name": "",
          "type": "uint256"
        }
      ],
      "stateMutability": "view",
      "type": "function"
    },
    {
      "inputs": [],
      "name": "totalSupply",
      "outputs": [
        {
          "internalType": "uint256",
          "name": "",
          "type": "uint256"
        }
      ],
      "stateMutability": "view",
      "type": "function"
    },
    {
      "inputs": [
        {
          "internalType": "address",
          "name": "to",
          "type": "address"
        },
        {
          "internalType": "uint256",
          "name": "value",
          "type": "uint256"
        }
      ],
      "name": "transfer",
      "outputs": [
        {
          "internalType": "bool",
          "name": "",
          "type": "bool"
        }
      ],
      "stateMutability": "nonpayable",
      "type": "function"
    },
    {
      "inputs": [
        {
          "internalType": "address",
          "name": "from",
          "type": "address"
        },
        {
          "internalType": "address",
          "name": "to",
          "type": "address"
        },
        {
          "internalType": "uint256",
          "name": "value",
          "type": "uint256"
        }
      ],
      "name": "transferFrom",
      "outputs": [
        {
          "internalType": "bool",
          "name": "",
          "type": "bool"
        }
      ],
      "stateMutability": "nonpayable",
      "type": "function"
    },
    {
      "inputs": [
        {
          "internalType": "address",
          "name": "newOwner",
          "type": "address"
        }
      ],
      "name": "transferOwnership",
      "outputs": [],
      "stateMutability": "nonpayable",
      "type": "function"
    }
  ],
  "bytecode": "0x60806040523480156200001157600080fd5b50336040518060400160405280600f81526020017f4865616c746844617461546f6b656e00000000000000000000000000000000008152506040518060400160405280600381526020017f4844540000000000000000000000000000000000000000000000000000000000815250816003908162000090919062000753565b508060049081620000a2919062000753565b505050600073ffffffffffffffffffffffffffffffffffffffff168173ffffffffffffffffffffffffffffffffffffffff16036200011a5760006040517f1e4fbdf70000000000000000000000000000000000000000000000000000000081526004016200011191906200087f565b60405180910390fd5b6200012b816200015660201b60201c565b506001600681905550620001503369d3c21bcecceda10000006200021c60201b60201c565b62000971565b6000600560009054906101000a900473ffffffffffffffffffffffffffffffffffffffff16905081600560006101000a81548173ffffffffffffffffffffffffffffffffffffffff021916908373ffffffffffffffffffffffffffffffffffffffff1602179055508173ffffffffffffffffffffffffffffffffffffffff168173ffffffffffffffffffffffffffffffffffffffff167f8be0079c531659141344cd1fd0a4f28419497f9722a3daafe3b4186f6b6457e060405160405180910390a35050565b600073ffffffffffffffffffffffffffffffffffffffff168273ffffffffffffffffffffffffffffffffffffffff1603620002915760006040517fec442f050000000000000000000000000000000000000000000000000000000081526004016200028891906200087f565b60405180910390fd5b620002a560008383620002a960201b60201c565b5050565b600073ffffffffffffffffffffffffffffffffffffffff168373ffffffffffffffffffffffffffffffffffffffff1603620002ff578060026000828254620002f29190620008cb565b92505081905550620003d5565b60008060008573ffffffffffffffffffffffffffffffffffffffff1673ffffffffffffffffffffffffffffffffffffffff168152602001908152602001600020549050818110156200038e578381836040517fe450d38c000000000000000000000000000000000000000000000000000000008152600401620003859392919062000917565b60405180910390fd5b8181036000808673ffffffffffffffffffffffffffffffffffffffff1673ffffffffffffffffffffffffffffffffffffffff16815260200190815260200160002081905550505b600073ffffffffffffffffffffffffffffffffffffffff168273ffffffffffffffffffffffffffffffffffffffff16036200042057806002600082825403925050819055506200046d565b806000808473ffffffffffffffffffffffffffffffffffffffff1673ffffffffffffffffffffffffffffffffffffffff168152602001908152602001600020600082825401925050819055505b8173ffffffffffffffffffffffffffffffffffffffff168373ffffffffffffffffffffffffffffffffffffffff167fddf252ad1be2c89b69c2b068fc378daa952ba7f163c4a11628f55a4df523b3ef83604051620004cc919062000954565b60405180910390a3505050565b600081519050919050565b7f4e487b7100000000000000000000000000000000000000000000000000000000600052604160045260246000fd5b7f4e487b7100000000000000000000000000000000000000000000000000000000600052602260045260246000fd5b600060028204905060018216806200055b57607f821691505b60208210810362000571576200057062000513565b5b50919050565b60008190508160005260206000209050919050565b60006020601f8301049050919050565b600082821b905092915050565b600060088302620005db7fffffffffffffffffffffffffffffffffffffffffffffffffffffffffffffffff826200059c565b620005e786836200059c565b95508019841693508086168417925050509392505050565b6000819050919050565b6000819050919050565b6000620006346200062e6200062884620005ff565b62000609565b620005ff565b9050919050565b6000819050919050565b620006508362000613565b620006686200065f826200063b565b848454620005a9565b825550505050565b600090565b6200067f62000670565b6200068c81848462000645565b505050565b5b81811015620006b457620006a860008262000675565b60018101905062000692565b5050565b601f8211156200070357620006cd8162000577565b620006d8846200058c565b81016020851015620006e8578190505b62000700620006f7856200058c565b83018262000691565b50505b505050565b600082821c905092915050565b6000620007286000198460080262000708565b1980831691505092915050565b600062000743838362000715565b9150826002028217905092915050565b6200075e82620004d9565b67ffffffffffffffff8111156200077a5762000779620004e4565b5b62000786825462000542565b62000793828285620006b8565b600060209050601f831160018114620007cb5760008415620007b6578287015190505b620007c2858262000735565b86555062000832565b601f198416620007db8662000577565b60005b828110156200080557848901518255600182019150602085019450602081019050620007de565b8683101562000825578489015162000821601f89168262000715565b8355505b6001600288020188555050505b505050505050565b600073ffffffffffffffffffffffffffffffffffffffff82169050919050565b600062000867826200083a565b9050919050565b62000879816200085a565b82525050565b60006020820190506200089660008301846200086e565b92915050565b7f4e487b7100000000000000000000000000000000000000000000000000000000600052601160045260246000fd5b6000620008d882620005ff565b9150620008e583620005ff565b92508282019050808211156200090057620008ff6200089c565b5b92915050565b6200091181620005ff565b82525050565b60006060820190506200092e60008301866200086e565b6200093d602083018562000906565b6200094c604083018462000906565b949350505050565b60006020820190506200096b600083018462000906565b92915050565b613e8680620009816000396000f3fe608060405234801561001057600080fd5b50600436106101c45760003560e01c806370a08231116100f95780639bc197e211610097578063cd8cc1af11610071578063cd8cc1af14610521578063d1a4862714610551578063dd62ed3e1461056d578063f2fde38b1461059d576101c4565b80639bc197e2146104a55780639fec468b146104c1578063a9059cbb146104f1576101c4565b8063817b1cd2116100d3578063817b1cd21461041b5780638da5cb5b146104395780639397e7611461045757806395d89b4114610487576101c4565b806370a08231146103c5578063715018a6146103f557806378bb7436146103ff576101c4565b806323b872dd11610166578063313ce56711610140578063313ce5671461034f5780634856285f1461036d5780634b2906881461038b5780636ebda464146103a9576101c4565b806323b872dd146102e5578063282ea229146103155780632ff2e9dc14610331576101c4565b806316934fc4116101a257806316934fc41461023557806318160ddd1461026757806318bd48471461028557806322b58968146102b5576101c4565b806306fdde03146101c9578063095ea7b3146101e75780630f1a290514610217575b600080fd5b6101d16105b9565b6040516101de9190612c7a565b60405180910390f35b61020160048036038101906101fc9190612d44565b61064b565b60405161020e9190612d9f565b60405180910390f35b61021f61066e565b60405161022c9190612dc9565b60405180910390f35b61024f600480360381019061024a9190612de4565b610673565b60405161025e93929190612e11565b60405180910390f35b61026f61069d565b60405161027c9190612dc9565b60405180910390f35b61029f600480360381019061029a9190612de4565b6106a7565b6040516102ac9190613018565b60405180910390f35b6102cf60048036038101906102ca9190612de4565b610a07565b6040516102dc9190612d9f565b60405180910390f35b6102ff60048036038101906102fa919061303a565b610a12565b60405161030c9190612d9f565b60405180910390f35b61032f600480360381019061032a9190612d44565b610a41565b005b610339610d83565b6040516103469190612dc9565b60405180910390f35b610357610d91565b60405161036491906130a9565b60405180910390f35b610375610d9a565b60405161038291906130dd565b60405180910390f35b610393610e06565b6040516103a09190612dc9565b60405180910390f35b6103c360048036038101906103be919061322d565b610e12565b005b6103df60048036038101906103da9190612de4565b611234565b6040516103ec9190612dc9565b60405180910390f35b6103fd61127c565b005b610419600480360381019061041491906132c8565b611290565b005b61042361157b565b6040516104309190612dc9565b60405180910390f35b610441611581565b60405161044e9190613317565b60405180910390f35b610471600480360381019061046c9190613332565b6115ab565b60405161047e91906134b1565b60405180910390f35b61048f6118da565b60405161049c9190612c7a565b60405180910390f35b6104bf60048036038101906104ba91906134d3565b61196c565b005b6104db60048036038101906104d6919061358e565b611d6b565b6040516104e89190612d9f565b60405180910390f35b61050b60048036038101906105069190612d44565b612033565b6040516105189190612d9f565b60405180910390f35b61053b60048036038101906105369190612de4565b612056565b6040516105489190612dc9565b60405180910390f35b61056b60048036038101906105669190612de4565b61206e565b005b6105876004803603810190610582919061358e565b612396565b6040516105949190612dc9565b60405180910390f35b6105b760048036038101906105b29190612de4565b61241d565b005b6060600380546105c8906135fd565b80601f01602080910402602001604051908101604052809291908181526020018280546105f4906135fd565b80156106415780601f1061061657610100808354040283529160200191610641565b820191906000526020600020905b81548152906001019060200180831161062457829003601f168201915b5050505050905090565b6000806106566124a3565b90506106638185856124ab565b600191505092915050565b600581565b600b6020528060005260406000206000915090508060000154908060010154908060020154905083565b6000600254905090565b6060818073ffffffffffffffffffffffffffffffffffffffff163373ffffffffffffffffffffffffffffffffffffffff1614806106ea57506106e98133611d6b565b5b806106fa57506106f981610a07565b5b610739576040517f08c379a00000000000000000000000000000000000000000000000000000000081526004016107309061367a565b60405180910390fd5b600760008473ffffffffffffffffffffffffffffffffffffffff1673ffffffffffffffffffffffffffffffffffffffff168152602001908152602001600020805480602002602001604051908101604052809291908181526020016000905b828210156109fb57838290600052602060002090600502016040518060c00160405290816000820180546107cb906135fd565b80601f01602080910402602001604051908101604052809291908181526020018280546107f7906135fd565b80156108445780601f1061081957610100808354040283529160200191610844565b820191906000526020600020905b81548152906001019060200180831161082757829003601f168201915b5050505050815260200160018201805461085d906135fd565b80601f0160208091040260200160405190810160405280929190818152602001828054610889906135fd565b80156108d65780601f106108ab576101008083540402835291602001916108d6565b820191906000526020600020905b8154815290600101906020018083116108b957829003601f168201915b50505050508152602001600282015481526020016003820160009054906101000a900473ffffffffffffffffffffffffffffffffffffffff1673ffffffffffffffffffffffffffffffffffffffff1673ffffffffffffffffffffffffffffffffffffffff1681526020016003820160149054906101000a900460ff1615151515815260200160048201805461096a906135fd565b80601f0160208091040260200160405190810160405280929190818152602001828054610996906135fd565b80156109e35780601f106109b8576101008083540402835291602001916109e3565b820191906000526020600020905b8154815290600101906020018083116109c657829003601f168201915b50505050508152505081526020019060010190610798565b50505050915050919050565b600060019050919050565b600080610a1d6124a3565b9050610a2a8582856124bd565b610a35858585612552565b60019150509392505050565b818073ffffffffffffffffffffffffffffffffffffffff163373ffffffffffffffffffffffffffffffffffffffff161480610a825750610a818133611d6b565b5b80610a925750610a9181610a07565b5b610ad1576040517f08c379a0000000000000000000000000000000000000000000000000000000008152600401610ac89061367a565b60405180910390fd5b600760008473ffffffffffffffffffffffffffffffffffffffff1673ffffffffffffffffffffffffffffffffffffffff168152602001908152602001600020805490508210610b55576040517f08c379a0000000000000000000000000000000000000000000000000000000008152600401610b4c906136e6565b60405180910390fd5b6000600760008573ffffffffffffffffffffffffffffffffffffffff1673ffffffffffffffffffffffffffffffffffffffff1681526020019081526020016000208381548110610ba857610ba7613706565b5b906000526020600020906005020160030160146101000a81548160ff021916908315150217905550600a6040518060a001604052803373ffffffffffffffffffffffffffffffffffffffff1681526020016040518060400160405280600681526020017f44454c455445000000000000000000000000000000000000000000000000000081525081526020014281526020016040518060400160405280601281526020017f5265636f7264206465616374697661746564000000000000000000000000000081525081526020018573ffffffffffffffffffffffffffffffffffffffff16815250908060018154018082558091505060019003906000526020600020906005020160009091909190915060008201518160000160006101000a81548173ffffffffffffffffffffffffffffffffffffffff021916908373ffffffffffffffffffffffffffffffffffffffff1602179055506020820151816001019081610d1491906138e1565b50604082015181600201556060820151816003019081610d3491906138e1565b5060808201518160040160006101000a81548173ffffffffffffffffffffffffffffffffffffffff021916908373ffffffffffffffffffffffffffffffffffffffff1602179055505050505050565b69d3c21bcecceda100000081565b60006012905090565b6000610da4612646565b6000424433604051602001610dbb93929190613a1c565b60405160208183030381529060405280519060200120905060016009600083815260200190815260200160002060006101000a81548160ff0219169083151502179055508091505090565b678ac7230489e8000081565b600081118015610e2657506301e133808111155b610e65576040517f08c379a0000000000000000000000000000000000000000000000000000000008152600401610e5c90613aa5565b60405180910390fd5b60006040518060c001604052803373ffffffffffffffffffffffffffffffffffffffff1681526020018573ffffffffffffffffffffffffffffffffffffffff1681526020018481526020018342610ebc9190613af4565b8152602001600115158152602001428152509050600860003373ffffffffffffffffffffffffffffffffffffffff1673ffffffffffffffffffffffffffffffffffffffff16815260200190815260200160002060008573ffffffffffffffffffffffffffffffffffffffff1673ffffffffffffffffffffffffffffffffffffffff16815260200190815260200160002081908060018154018082558091505060019003906000526020600020906006020160009091909190915060008201518160000160006101000a81548173ffffffffffffffffffffffffffffffffffffffff021916908373ffffffffffffffffffffffffffffffffffffffff16021790555060208201518160010160006101000a81548173ffffffffffffffffffffffffffffffffffffffff021916908373ffffffffffffffffffffffffffffffffffffffff160217905550604082015181600201908161101991906138e1565b506060820151816003015560808201518160040160006101000a81548160ff02191690831515021790555060a082015181600501555050600a6040518060a001604052803373ffffffffffffffffffffffffffffffffffffffff1681526020016040518060400160405280600d81526020017f4752414e545f434f4e53454e540000000000000000000000000000000000000081525081526020014281526020018581526020018673ffffffffffffffffffffffffffffffffffffffff16815250908060018154018082558091505060019003906000526020600020906005020160009091909190915060008201518160000160006101000a81548173ffffffffffffffffffffffffffffffffffffffff021916908373ffffffffffffffffffffffffffffffffffffffff160217905550602082015181600101908161115f91906138e1565b5060408201518160020155606082015181600301908161117f91906138e1565b5060808201518160040160006101000a81548173ffffffffffffffffffffffffffffffffffffffff021916908373ffffffffffffffffffffffffffffffffffffffff16021790555050508373ffffffffffffffffffffffffffffffffffffffff163373ffffffffffffffffffffffffffffffffffffffff167f8716ff8199192ae1d265d3d8a241d2e1518c992136ec8f26d77d6815937d70a8856040516112269190612c7a565b60405180910390a350505050565b60008060008373ffffffffffffffffffffffffffffffffffffffff1673ffffffffffffffffffffffffffffffffffffffff168152602001908152602001600020549050919050565b611284612646565b61128e60006126cd565b565b6009600082815260200190815260200160002060009054906101000a900460ff166112f0576040517f08c379a00000000000000000000000000000000000000000000000000000000081526004016112e790613b74565b60405180910390fd5b6112f982610a07565b611338576040517f08c379a000000000000000000000000000000000000000000000000000000000815260040161132f90613be0565b60405180910390fd5b600a6040518060a001604052803373ffffffffffffffffffffffffffffffffffffffff1681526020016040518060400160405280601081526020017f454d455247454e43595f4143434553530000000000000000000000000000000081525081526020014281526020016040518060400160405280601881526020017f456d657267656e637920616363657373206772616e746564000000000000000081525081526020018473ffffffffffffffffffffffffffffffffffffffff16815250908060018154018082558091505060019003906000526020600020906005020160009091909190915060008201518160000160006101000a81548173ffffffffffffffffffffffffffffffffffffffff021916908373ffffffffffffffffffffffffffffffffffffffff160217905550602082015181600101908161147c91906138e1565b5060408201518160020155606082015181600301908161149c91906138e1565b5060808201518160040160006101000a81548173ffffffffffffffffffffffffffffffffffffffff021916908373ffffffffffffffffffffffffffffffffffffffff16021790555050508173ffffffffffffffffffffffffffffffffffffffff163373ffffffffffffffffffffffffffffffffffffffff167f5725311a69709443a953ef018d89d5d74ac37f66827b0cc83deabc24320db0fe8360405161154391906130dd565b60405180910390a360006009600083815260200190815260200160002060006101000a81548160ff0219169083151502179055505050565b600c5481565b6000600560009054906101000a900473ffffffffffffffffffffffffffffffffffffffff16905090565b6060600a8054905083106115f4576040517f08c379a00000000000000000000000000000000000000000000000000000000081526004016115eb90613c4c565b60405180910390fd5b600082846116029190613af4565b9050600a8054905081111561161a57600a8054905090505b600084826116289190613c6c565b67ffffffffffffffff81111561164157611640613102565b5b60405190808252806020026020018201604052801561167a57816020015b611667612b8f565b81526020019060019003908161165f5790505b50905060008590505b828110156118ce57600a818154811061169f5761169e613706565b5b90600052602060002090600502016040518060a00160405290816000820160009054906101000a900473ffffffffffffffffffffffffffffffffffffffff1673ffffffffffffffffffffffffffffffffffffffff1673ffffffffffffffffffffffffffffffffffffffff16815260200160018201805461171e906135fd565b80601f016020809104026020016040519081016040528092919081815260200182805461174a906135fd565b80156117975780601f1061176c57610100808354040283529160200191611797565b820191906000526020600020905b81548152906001019060200180831161177a57829003601f168201915b50505050508152602001600282015481526020016003820180546117ba906135fd565b80601f01602080910402602001604051908101604052809291908181526020018280546117e6906135fd565b80156118335780601f1061180857610100808354040283529160200191611833565b820191906000526020600020905b81548152906001019060200180831161181657829003601f168201915b505050505081526020016004820160009054906101000a900473ffffffffffffffffffffffffffffffffffffffff1673ffffffffffffffffffffffffffffffffffffffff1673ffffffffffffffffffffffffffffffffffffffff168152505082878361189f9190613c6c565b815181106118b0576118af613706565b5b602002602001018190525080806118c690613ca0565b915050611683565b50809250505092915050565b6060600480546118e9906135fd565b80601f0160208091040260200160405190810160405280929190818152602001828054611915906135fd565b80156119625780601f1061193757610100808354040283529160200191611962565b820191906000526020600020905b81548152906001019060200180831161194557829003601f168201915b5050505050905090565b838073ffffffffffffffffffffffffffffffffffffffff163373ffffffffffffffffffffffffffffffffffffffff1614806119ad57506119ac8133611d6b565b5b806119bd57506119bc81610a07565b5b6119fc576040517f08c379a00000000000000000000000000000000000000000000000000000000081526004016119f39061367a565b60405180910390fd5b60006040518060c001604052808681526020018581526020014281526020013373ffffffffffffffffffffffffffffffffffffffff168152602001600115158152602001848152509050600760008773ffffffffffffffffffffffffffffffffffffffff1673ffffffffffffffffffffffffffffffffffffffff1681526020019081526020016000208190806001815401808255809150506001900390600052602060002090600502016000909190919091506000820151816000019081611ac491906138e1565b506020820151816001019081611ada91906138e1565b506040820151816002015560608201518160030160006101000a81548173ffffffffffffffffffffffffffffffffffffffff021916908373ffffffffffffffffffffffffffffffffffffffff16021790555060808201518160030160146101000a81548160ff02191690831515021790555060a0820151816004019081611b6191906138e1565b505050600a6040518060a001604052803373ffffffffffffffffffffffffffffffffffffffff1681526020016040518060400160405280600681526020017f4352454154450000000000000000000000000000000000000000000000000000815250815260200142815260200186604051602001611bdf9190613dbc565b60405160208183030381529060405281526020018873ffffffffffffffffffffffffffffffffffffffff16815250908060018154018082558091505060019003906000526020600020906005020160009091909190915060008201518160000160006101000a81548173ffffffffffffffffffffffffffffffffffffffff021916908373ffffffffffffffffffffffffffffffffffffffff1602179055506020820151816001019081611c9291906138e1565b50604082015181600201556060820151816003019081611cb291906138e1565b5060808201518160040160006101000a81548173ffffffffffffffffffffffffffffffffffffffff021916908373ffffffffffffffffffffffffffffffffffffffff16021790555050503373ffffffffffffffffffffffffffffffffffffffff168673ffffffffffffffffffffffffffffffffffffffff167fd70a982e4699a479ef5665002773abe527b13f9191b809d0f0205225e7ff5f8a8642604051611d5b929190613de9565b60405180910390a3505050505050565b600080600860008573ffffffffffffffffffffffffffffffffffffffff1673ffffffffffffffffffffffffffffffffffffffff16815260200190815260200160002060008473ffffffffffffffffffffffffffffffffffffffff1673ffffffffffffffffffffffffffffffffffffffff168152602001908152602001600020805480602002602001604051908101604052809291908181526020016000905b82821015611fa957838290600052602060002090600602016040518060c00160405290816000820160009054906101000a900473ffffffffffffffffffffffffffffffffffffffff1673ffffffffffffffffffffffffffffffffffffffff1673ffffffffffffffffffffffffffffffffffffffff1681526020016001820160009054906101000a900473ffffffffffffffffffffffffffffffffffffffff1673ffffffffffffffffffffffffffffffffffffffff1673ffffffffffffffffffffffffffffffffffffffff168152602001600282018054611ee9906135fd565b80601f0160208091040260200160405190810160405280929190818152602001828054611f15906135fd565b8015611f625780601f10611f3757610100808354040283529160200191611f62565b820191906000526020600020905b815481529060010190602001808311611f4557829003601f168201915b50505050508152602001600382015481526020016004820160009054906101000a900460ff1615151515815260200160058201548152505081526020019060010190611e0a565b50505050905060005b815181101561202657818181518110611fce57611fcd613706565b5b6020026020010151608001518015612003575042828281518110611ff557611ff4613706565b5b602002602001015160600151115b156120135760019250505061202d565b808061201e90613ca0565b915050611fb2565b5060009150505b92915050565b60008061203e6124a3565b905061204b818585612552565b600191505092915050565b600d6020528060005260406000206000915090505481565b6000600860003373ffffffffffffffffffffffffffffffffffffffff1673ffffffffffffffffffffffffffffffffffffffff16815260200190815260200160002060008373ffffffffffffffffffffffffffffffffffffffff1673ffffffffffffffffffffffffffffffffffffffff168152602001908152602001600020905060005b8180549050811015612391578181815481106121105761210f613706565b5b906000526020600020906006020160040160009054906101000a900460ff161561237e57600082828154811061214957612148613706565b5b906000526020600020906006020160040160006101000a81548160ff021916908315150217905550600a6040518060a001604052803373ffffffffffffffffffffffffffffffffffffffff1681526020016040518060400160405280600e81526020017f5245564f4b455f434f4e53454e5400000000000000000000000000000000000081525081526020014281526020016040518060400160405280600f81526020017f436f6e73656e74207265766f6b6564000000000000000000000000000000000081525081526020018573ffffffffffffffffffffffffffffffffffffffff16815250908060018154018082558091505060019003906000526020600020906005020160009091909190915060008201518160000160006101000a81548173ffffffffffffffffffffffffffffffffffffffff021916908373ffffffffffffffffffffffffffffffffffffffff16021790555060208201518160010190816122b591906138e1565b506040820151816002015560608201518160030190816122d591906138e1565b5060808201518160040160006101000a81548173ffffffffffffffffffffffffffffffffffffffff021916908373ffffffffffffffffffffffffffffffffffffffff16021790555050508273ffffffffffffffffffffffffffffffffffffffff163373ffffffffffffffffffffffffffffffffffffffff167febecee2d3f2ea272f73dd9d9ccc0bacd11280d61240332cbcd8a68173ae5cc2c60405160405180910390a3612391565b808061238990613ca0565b9150506120f1565b505050565b6000600160008473ffffffffffffffffffffffffffffffffffffffff1673ffffffffffffffffffffffffffffffffffffffff16815260200190815260200160002060008373ffffffffffffffffffffffffffffffffffffffff1673ffffffffffffffffffffffffffffffffffffffff16815260200190815260200160002054905092915050565b612425612646565b600073ffffffffffffffffffffffffffffffffffffffff168173ffffffffffffffffffffffffffffffffffffffff16036124975760006040517f1e4fbdf700000000000000000000000000000000000000000000000000000000815260040161248e9190613317565b60405180910390fd5b6124a0816126cd565b50565b600033905090565b6124b88383836001612793565b505050565b60006124c98484612396565b90507fffffffffffffffffffffffffffffffffffffffffffffffffffffffffffffffff81101561254c578181101561253c578281836040517ffb8f41b200000000000000000000000000000000000000000000000000000000815260040161253393929190613e19565b60405180910390fd5b61254b84848484036000612793565b5b50505050565b600073ffffffffffffffffffffffffffffffffffffffff168373ffffffffffffffffffffffffffffffffffffffff16036125c45760006040517f96c6fd1e0000000000000000000000000000000000000000000000000000000081526004016125bb9190613317565b60405180910390fd5b600073ffffffffffffffffffffffffffffffffffffffff168273ffffffffffffffffffffffffffffffffffffffff16036126365760006040517fec442f0500000000000000000000000000000000000000000000000000000000815260040161262d9190613317565b60405180910390fd5b61264183838361296a565b505050565b61264e6124a3565b73ffffffffffffffffffffffffffffffffffffffff1661266c611581565b73ffffffffffffffffffffffffffffffffffffffff16146126cb5761268f6124a3565b6040517f118cdaa70000000000000000000000000000000000000000000000000000000081526004016126c29190613317565b60405180910390fd5b565b6000600560009054906101000a900473ffffffffffffffffffffffffffffffffffffffff16905081600560006101000a81548173ffffffffffffffffffffffffffffffffffffffff021916908373ffffffffffffffffffffffffffffffffffffffff1602179055508173ffffffffffffffffffffffffffffffffffffffff168173ffffffffffffffffffffffffffffffffffffffff167f8be0079c531659141344cd1fd0a4f28419497f9722a3daafe3b4186f6b6457e060405160405180910390a35050565b600073ffffffffffffffffffffffffffffffffffffffff168473ffffffffffffffffffffffffffffffffffffffff16036128055760006040517fe602df050000000000000000000000000000000000000000000000000000000081526004016127fc9190613317565b60405180910390fd5b600073ffffffffffffffffffffffffffffffffffffffff168373ffffffffffffffffffffffffffffffffffffffff16036128775760006040517f94280d6200000000000000000000000000000000000000000000000000000000815260040161286e9190613317565b60405180910390fd5b81600160008673ffffffffffffffffffffffffffffffffffffffff1673ffffffffffffffffffffffffffffffffffffffff16815260200190815260200160002060008573ffffffffffffffffffffffffffffffffffffffff1673ffffffffffffffffffffffffffffffffffffffff168152602001908152602001600020819055508015612964578273ffffffffffffffffffffffffffffffffffffffff168473ffffffffffffffffffffffffffffffffffffffff167f8c5be1e5ebec7d5bd14f71427d1e84f3dd0314c0f7b2291e5b200ac8c7c3b9258460405161295b9190612dc9565b60405180910390a35b50505050565b600073ffffffffffffffffffffffffffffffffffffffff168373ffffffffffffffffffffffffffffffffffffffff16036129bc5780600260008282546129b09190613af4565b92505081905550612a8f565b60008060008573ffffffffffffffffffffffffffffffffffffffff1673ffffffffffffffffffffffffffffffffffffffff16815260200190815260200160002054905081811015612a48578381836040517fe450d38c000000000000000000000000000000000000000000000000000000008152600401612a3f93929190613e19565b60405180910390fd5b8181036000808673ffffffffffffffffffffffffffffffffffffffff1673ffffffffffffffffffffffffffffffffffffffff16815260200190815260200160002081905550505b600073ffffffffffffffffffffffffffffffffffffffff168273ffffffffffffffffffffffffffffffffffffffff1603612ad85780600260008282540392505081905550612b25565b806000808473ffffffffffffffffffffffffffffffffffffffff1673ffffffffffffffffffffffffffffffffffffffff168152602001908152602001600020600082825401925050819055505b8173ffffffffffffffffffffffffffffffffffffffff168373ffffffffffffffffffffffffffffffffffffffff167fddf252ad1be2c89b69c2b068fc378daa952ba7f163c4a11628f55a4df523b3ef83604051612b829190612dc9565b60405180910390a3505050565b6040518060a00160405280600073ffffffffffffffffffffffffffffffffffffffff168152602001606081526020016000815260200160608152602001600073ffffffffffffffffffffffffffffffffffffffff1681525090565b600081519050919050565b600082825260208201905092915050565b60005b83811015612c24578082015181840152602081019050612c09565b60008484015250505050565b6000601f19601f8301169050919050565b6000612c4c82612bea565b612c568185612bf5565b9350612c66818560208601612c06565b612c6f81612c30565b840191505092915050565b60006020820190508181036000830152612c948184612c41565b905092915050565b6000604051905090565b600080fd5b600080fd5b600073ffffffffffffffffffffffffffffffffffffffff82169050919050565b6000612cdb82612cb0565b9050919050565b612ceb81612cd0565b8114612cf657600080fd5b50565b600081359050612d0881612ce2565b92915050565b6000819050919050565b612d2181612d0e565b8114612d2c57600080fd5b50565b600081359050612d3e81612d18565b92915050565b60008060408385031215612d5b57612d5a612ca6565b5b6000612d6985828601612cf9565b9250506020612d7a85828601612d2f565b9150509250929050565b60008115159050919050565b612d9981612d84565b82525050565b6000602082019050612db46000830184612d90565b92915050565b612dc381612d0e565b82525050565b6000602082019050612dde6000830184612dba565b92915050565b600060208284031215612dfa57612df9612ca6565b5b6000612e0884828501612cf9565b91505092915050565b6000606082019050612e266000830186612dba565b612e336020830185612dba565b612e406040830184612dba565b949350505050565b600081519050919050565b600082825260208201905092915050565b6000819050602082019050919050565b600082825260208201905092915050565b6000612e9082612bea565b612e9a8185612e74565b9350612eaa818560208601612c06565b612eb381612c30565b840191505092915050565b612ec781612d0e565b82525050565b612ed681612cd0565b82525050565b612ee581612d84565b82525050565b600060c0830160008301518482036000860152612f088282612e85565b91505060208301518482036020860152612f228282612e85565b9150506040830151612f376040860182612ebe565b506060830151612f4a6060860182612ecd565b506080830151612f5d6080860182612edc565b5060a083015184820360a0860152612f758282612e85565b9150508091505092915050565b6000612f8e8383612eeb565b905092915050565b6000602082019050919050565b6000612fae82612e48565b612fb88185612e53565b935083602082028501612fca85612e64565b8060005b858110156130065784840389528151612fe78582612f82565b9450612ff283612f96565b925060208a01995050600181019050612fce565b50829750879550505050505092915050565b600060208201905081810360008301526130328184612fa3565b905092915050565b60008060006060848603121561305357613052612ca6565b5b600061306186828701612cf9565b935050602061307286828701612cf9565b925050604061308386828701612d2f565b9150509250925092565b600060ff82169050919050565b6130a38161308d565b82525050565b60006020820190506130be600083018461309a565b92915050565b6000819050919050565b6130d7816130c4565b82525050565b60006020820190506130f260008301846130ce565b92915050565b600080fd5b600080fd5b7f4e487b7100000000000000000000000000000000000000000000000000000000600052604160045260246000fd5b61313a82612c30565b810181811067ffffffffffffffff8211171561315957613158613102565b5b80604052505050565b600061316c612c9c565b90506131788282613131565b919050565b600067ffffffffffffffff82111561319857613197613102565b5b6131a182612c30565b9050602081019050919050565b82818337600083830152505050565b60006131d06131cb8461317d565b613162565b9050828152602081018484840111156131ec576131eb6130fd565b5b6131f78482856131ae565b509392505050565b600082601f830112613214576132136130f8565b5b81356132248482602086016131bd565b91505092915050565b60008060006060848603121561324657613245612ca6565b5b600061325486828701612cf9565b935050602084013567ffffffffffffffff81111561327557613274612cab565b5b613281868287016131ff565b925050604061329286828701612d2f565b9150509250925092565b6132a5816130c4565b81146132b057600080fd5b50565b6000813590506132c28161329c565b92915050565b600080604083850312156132df576132de612ca6565b5b60006132ed85828601612cf9565b92505060206132fe858286016132b3565b9150509250929050565b61331181612cd0565b82525050565b600060208201905061332c6000830184613308565b92915050565b6000806040838503121561334957613348612ca6565b5b600061335785828601612d2f565b925050602061336885828601612d2f565b9150509250929050565b600081519050919050565b600082825260208201905092915050565b6000819050602082019050919050565b600060a0830160008301516133b66000860182612ecd565b50602083015184820360208601526133ce8282612e85565b91505060408301516133e36040860182612ebe565b50606083015184820360608601526133fb8282612e85565b91505060808301516134106080860182612ecd565b508091505092915050565b6000613427838361339e565b905092915050565b6000602082019050919050565b600061344782613372565b613451818561337d565b9350836020820285016134638561338e565b8060005b8581101561349f5784840389528151613480858261341b565b945061348b8361342f565b925060208a01995050600181019050613467565b50829750879550505050505092915050565b600060208201905081810360008301526134cb818461343c565b905092915050565b600080600080608085870312156134ed576134ec612ca6565b5b60006134fb87828801612cf9565b945050602085013567ffffffffffffffff81111561351c5761351b612cab565b5b613528878288016131ff565b935050604085013567ffffffffffffffff81111561354957613548612cab565b5b613555878288016131ff565b925050606085013567ffffffffffffffff81111561357657613575612cab565b5b613582878288016131ff565b91505092959194509250565b600080604083850312156135a5576135a4612ca6565b5b60006135b385828601612cf9565b92505060206135c485828601612cf9565b9150509250929050565b7f4e487b7100000000000000000000000000000000000000000000000000000000600052602260045260246000fd5b6000600282049050600182168061361557607f821691505b602082108103613628576136276135ce565b5b50919050565b7f556e617574686f72697a65642061636365737300000000000000000000000000600082015250565b6000613664601383612bf5565b915061366f8261362e565b602082019050919050565b6000602082019050818103600083015261369381613657565b9050919050565b7f496e76616c6964207265636f726420696e646578000000000000000000000000600082015250565b60006136d0601483612bf5565b91506136db8261369a565b602082019050919050565b600060208201905081810360008301526136ff816136c3565b9050919050565b7f4e487b7100000000000000000000000000000000000000000000000000000000600052603260045260246000fd5b60008190508160005260206000209050919050565b60006020601f8301049050919050565b600082821b905092915050565b6000600883026137977fffffffffffffffffffffffffffffffffffffffffffffffffffffffffffffffff8261375a565b6137a1868361375a565b95508019841693508086168417925050509392505050565b6000819050919050565b60006137de6137d96137d484612d0e565b6137b9565b612d0e565b9050919050565b6000819050919050565b6137f8836137c3565b61380c613804826137e5565b848454613767565b825550505050565b600090565b613821613814565b61382c8184846137ef565b505050565b5b8181101561385057613845600082613819565b600181019050613832565b5050565b601f8211156138955761386681613735565b61386f8461374a565b8101602085101561387e578190505b61389261388a8561374a565b830182613831565b50505b505050565b600082821c905092915050565b60006138b86000198460080261389a565b1980831691505092915050565b60006138d183836138a7565b9150826002028217905092915050565b6138ea82612bea565b67ffffffffffffffff81111561390357613902613102565b5b61390d82546135fd565b613918828285613854565b600060209050601f83116001811461394b5760008415613939578287015190505b61394385826138c5565b8655506139ab565b601f19841661395986613735565b60005b828110156139815784890151825560018201915060208501945060208101905061395c565b8683101561399e578489015161399a601f8916826138a7565b8355505b6001600288020188555050505b505050505050565b6000819050919050565b6139ce6139c982612d0e565b6139b3565b82525050565b60008160601b9050919050565b60006139ec826139d4565b9050919050565b60006139fe826139e1565b9050919050565b613a16613a1182612cd0565b6139f3565b82525050565b6000613a2882866139bd565b602082019150613a3882856139bd565b602082019150613a488284613a05565b601482019150819050949350505050565b7f496e76616c6964206475726174696f6e00000000000000000000000000000000600082015250565b6000613a8f601083612bf5565b9150613a9a82613a59565b602082019050919050565b60006020820190508181036000830152613abe81613a82565b9050919050565b7f4e487b7100000000000000000000000000000000000000000000000000000000600052601160045260246000fd5b6000613aff82612d0e565b9150613b0a83612d0e565b9250828201905080821115613b2257613b21613ac5565b5b92915050565b7f496e76616c696420656d657267656e63792061636365737320636f6465000000600082015250565b6000613b5e601d83612bf5565b9150613b6982613b28565b602082019050919050565b60006020820190508181036000830152613b8d81613b51565b9050919050565b7f456d657267656e637920616363657373206e6f74206163746976650000000000600082015250565b6000613bca601b83612bf5565b9150613bd582613b94565b602082019050919050565b60006020820190508181036000830152613bf981613bbd565b9050919050565b7f496e76616c696420737461727420696e64657800000000000000000000000000600082015250565b6000613c36601383612bf5565b9150613c4182613c00565b602082019050919050565b60006020820190508181036000830152613c6581613c29565b9050919050565b6000613c7782612d0e565b9150613c8283612d0e565b9250828203905081811115613c9a57613c99613ac5565b5b92915050565b6000613cab82612d0e565b91507fffffffffffffffffffffffffffffffffffffffffffffffffffffffffffffffff8203613cdd57613cdc613ac5565b5b600182019050919050565b600081905092915050565b7f4372656174656420000000000000000000000000000000000000000000000000600082015250565b6000613d29600883613ce8565b9150613d3482613cf3565b600882019050919050565b6000613d4a82612bea565b613d548185613ce8565b9350613d64818560208601612c06565b80840191505092915050565b7f207265636f726400000000000000000000000000000000000000000000000000600082015250565b6000613da6600783613ce8565b9150613db182613d70565b600782019050919050565b6000613dc782613d1c565b9150613dd38284613d3f565b9150613dde82613d99565b915081905092915050565b60006040820190508181036000830152613e038185612c41565b9050613e126020830184612dba565b9392505050565b6000606082019050613e2e6000830186613308565b613e3b6020830185612dba565b613e486040830184612dba565b94935050505056fea2646970667358221220ac37999330efed4c74529e54307b2a9bbd933929fcf33560b3050fd26ffe572064736f6c63430008140033",
  "linkReferences": {},
  "deployedLinkReferences": {}
}