{
  "_format": "hh-sol-artifact-1",
  "contractName": "MedicalRecords",
  "sourceName": "contracts/MedicalRecords.sol",
  "abi": [
    {
      "inputs": [],
      "stateMutability": "nonpayable",
      "type": "constructor"
    },
    {
      "inputs": [
        {
          "internalType": "address",
          "name": "owner",
          "type": "address"
        }
      ],
      "name": "OwnableInvalidOwner",
      "type": "error"
    },
    {
      "inputs": [
        {
          "internalType": "address",
          "name": "account",
          "type": "address"
        }
      ],
      "name": "OwnableUnauthorizedAccount",
      "type": "error"
    },
    {
      "inputs": [],
      "name": "ReentrancyGuardReentrantCall",
      "type": "error"
    },
    {
      "anonymous": false,
      "inputs": [
        {
          "indexed": true,
          "internalType": "address",
          "name": "patient",
          "type": "address"
        },
        {
          "indexed": true,
          "internalType": "address",
          "name": "provider",
          "type": "address"
        },
        {
          "indexed": false,
          "internalType": "string",
          "name": "purpose",
          "type": "string"
        }
      ],
      "name": "ConsentGranted",
      "type": "event"
    },
    {
      "anonymous": false,
      "inputs": [
        {
          "indexed": true,
          "internalType": "address",
          "name": "patient",
          "type": "address"
        },
        {
          "indexed": true,
          "internalType": "address",
          "name": "provider",
          "type": "address"
        }
      ],
      "name": "ConsentRevoked",
      "type": "event"
    },
    {
      "anonymous": false,
      "inputs": [
        {
          "indexed": true,
          "internalType": "address",
          "name": "emergencyProvider",
          "type": "address"
        },
        {
          "indexed": true,
          "internalType": "address",
          "name": "patient",
          "type": "address"
        },
        {
          "indexed": false,
          "internalType": "bytes32",
          "name": "accessCode",
          "type": "bytes32"
        }
      ],
      "name": "EmergencyAccess",
      "type": "event"
    },
    {
      "anonymous": false,
      "inputs": [
        {
          "indexed": true,
          "internalType": "address",
          "name": "previousOwner",
          "type": "address"
        },
        {
          "indexed": true,
          "internalType": "address",
          "name": "newOwner",
          "type": "address"
        }
      ],
      "name": "OwnershipTransferred",
      "type": "event"
    },
    {
      "anonymous": false,
      "inputs": [
        {
          "indexed": true,
          "internalType": "address",
          "name": "accessor",
          "type": "address"
        },
        {
          "indexed": true,
          "internalType": "address",
          "name": "patient",
          "type": "address"
        },
        {
          "indexed": false,
          "internalType": "uint256",
          "name": "recordIndex",
          "type": "uint256"
        }
      ],
      "name": "RecordAccessed",
      "type": "event"
    },
    {
      "anonymous": false,
      "inputs": [
        {
          "indexed": true,
          "internalType": "address",
          "name": "patient",
          "type": "address"
        },
        {
          "indexed": true,
          "internalType": "address",
          "name": "provider",
          "type": "address"
        },
        {
          "indexed": false,
          "internalType": "string",
          "name": "recordType",
          "type": "string"
        },
        {
          "indexed": false,
          "internalType": "uint256",
          "name": "timestamp",
          "type": "uint256"
        }
      ],
      "name": "RecordCreated",
      "type": "event"
    },
    {
      "inputs": [
        {
          "internalType": "address",
          "name": "patient",
          "type": "address"
        },
        {
          "internalType": "string",
          "name": "ipfsHash",
          "type": "string"
        },
        {
          "internalType": "string",
          "name": "recordType",
          "type": "string"
        },
        {
          "internalType": "string",
          "name": "encryptedKey",
          "type": "string"
        }
      ],
      "name": "createRecord",
      "outputs": [],
      "stateMutability": "nonpayable",
      "type": "function"
    },
    {
      "inputs": [
        {
          "internalType": "address",
          "name": "patient",
          "type": "address"
        },
        {
          "internalType": "uint256",
          "name": "recordIndex",
          "type": "uint256"
        }
      ],
      "name": "deactivateRecord",
      "outputs": [],
      "stateMutability": "nonpayable",
      "type": "function"
    },
    {
      "inputs": [
        {
          "internalType": "address",
          "name": "patient",
          "type": "address"
        },
        {
          "internalType": "bytes32",
          "name": "accessCode",
          "type": "bytes32"
        }
      ],
      "name": "emergencyAccess",
      "outputs": [],
      "stateMutability": "nonpayable",
      "type": "function"
    },
    {
      "inputs": [],
      "name": "generateEmergencyCode",
      "outputs": [
        {
          "internalType": "bytes32",
          "name": "",
          "type": "bytes32"
        }
      ],
      "stateMutability": "nonpayable",
      "type": "function"
    },
    {
      "inputs": [
        {
          "internalType": "uint256",
          "name": "startIndex",
          "type": "uint256"
        },
        {
          "internalType": "uint256",
          "name": "count",
          "type": "uint256"
        }
      ],
      "name": "getAuditTrail",
      "outputs": [
        {
          "components": [
            {
              "internalType": "address",
              "name": "actor",
              "type": "address"
            },
            {
              "internalType": "string",
              "name": "action",
              "type": "string"
            },
            {
              "internalType": "uint256",
              "name": "timestamp",
              "type": "uint256"
            },
            {
              "internalType": "string",
              "name": "details",
              "type": "string"
            },
            {
              "internalType": "address",
              "name": "targetAddress",
              "type": "address"
            }
          ],
          "internalType": "struct MedicalRecords.AuditLog[]",
          "name": "",
          "type": "tuple[]"
        }
      ],
      "stateMutability": "view",
      "type": "function"
    },
    {
      "inputs": [
        {
          "internalType": "address",
          "name": "patient",
          "type": "address"
        }
      ],
      "name": "getPatientRecords",
      "outputs": [
        {
          "components": [
            {
              "internalType": "string",
              "name": "ipfsHash",
              "type": "string"
            },
            {
              "internalType": "string",
              "name": "recordType",
              "type": "string"
            },
            {
              "internalType": "uint256",
              "name": "timestamp",
              "type": "uint256"
            },
            {
              "internalType": "address",
              "name": "provider",
              "type": "address"
            },
            {
              "internalType": "bool",
              "name": "isActive",
              "type": "bool"
            },
            {
              "internalType": "string",
              "name": "encryptedKey",
              "type": "string"
            }
          ],
          "internalType": "struct MedicalRecords.Record[]",
          "name": "",
          "type": "tuple[]"
        }
      ],
      "stateMutability": "view",
      "type": "function"
    },
    {
      "inputs": [
        {
          "internalType": "address",
          "name": "provider",
          "type": "address"
        },
        {
          "internalType": "string",
          "name": "purpose",
          "type": "string"
        },
        {
          "internalType": "uint256",
          "name": "duration",
          "type": "uint256"
        }
      ],
      "name": "grantConsent",
      "outputs": [],
      "stateMutability": "nonpayable",
      "type": "function"
    },
    {
      "inputs": [
        {
          "internalType": "address",
          "name": "patient",
          "type": "address"
        },
        {
          "internalType": "address",
          "name": "provider",
          "type": "address"
        }
      ],
      "name": "hasActiveConsent",
      "outputs": [
        {
          "internalType": "bool",
          "name": "",
          "type": "bool"
        }
      ],
      "stateMutability": "view",
      "type": "function"
    },
    {
      "inputs": [
        {
          "internalType": "address",
          "name": "patient",
          "type": "address"
        }
      ],
      "name": "isEmergencyAccessActive",
      "outputs": [
        {
          "internalType": "bool",
          "name": "",
          "type": "bool"
        }
      ],
      "stateMutability": "view",
      "type": "function"
    },
    {
      "inputs": [],
      "name": "owner",
      "outputs": [
        {
          "internalType": "address",
          "name": "",
          "type": "address"
        }
      ],
      "stateMutability": "view",
      "type": "function"
    },
    {
      "inputs": [],
      "name": "renounceOwnership",
      "outputs": [],
      "stateMutability": "nonpayable",
      "type": "function"
    },
    {
      "inputs": [
        {
          "internalType": "address",
          "name": "provider",
          "type": "address"
        }
      ],
      "name": "revokeConsent",
      "outputs": [],
      "stateMutability": "nonpayable",
      "type": "function"
    },
    {
      "inputs": [
        {
          "internalType": "address",
          "name": "newOwner",
          "type": "address"
        }
      ],
      "name": "transferOwnership",
      "outputs": [],
      "stateMutability": "nonpayable",
      "type": "function"
    }
  ],
  "bytecode": "0x60806040523480156200001157600080fd5b5033600073ffffffffffffffffffffffffffffffffffffffff168173ffffffffffffffffffffffffffffffffffffffff1603620000885760006040517f1e4fbdf70000000000000000000000000000000000000000000000000000000081526004016200007f9190620001b0565b60405180910390fd5b6200009981620000a760201b60201c565b5060018081905550620001cd565b60008060009054906101000a900473ffffffffffffffffffffffffffffffffffffffff169050816000806101000a81548173ffffffffffffffffffffffffffffffffffffffff021916908373ffffffffffffffffffffffffffffffffffffffff1602179055508173ffffffffffffffffffffffffffffffffffffffff168173ffffffffffffffffffffffffffffffffffffffff167f8be0079c531659141344cd1fd0a4f28419497f9722a3daafe3b4186f6b6457e060405160405180910390a35050565b600073ffffffffffffffffffffffffffffffffffffffff82169050919050565b600062000198826200016b565b9050919050565b620001aa816200018b565b82525050565b6000602082019050620001c760008301846200019f565b92915050565b6131c080620001dd6000396000f3fe608060405234801561001057600080fd5b50600436106100cf5760003560e01c806378bb74361161008c5780639bc197e2116100665780639bc197e2146101fe5780639fec468b1461021a578063d1a486271461024a578063f2fde38b14610266576100cf565b806378bb7436146101945780638da5cb5b146101b05780639397e761146101ce576100cf565b806318bd4847146100d457806322b5896814610104578063282ea229146101345780634856285f146101505780636ebda4641461016e578063715018a61461018a575b600080fd5b6100ee60048036038101906100e991906120a9565b610282565b6040516100fb9190612302565b60405180910390f35b61011e600480360381019061011991906120a9565b6105e2565b60405161012b9190612333565b60405180910390f35b61014e6004803603810190610149919061237a565b6105ed565b005b61015861092f565b60405161016591906123d3565b60405180910390f35b61018860048036038101906101839190612523565b61099b565b005b610192610dbd565b005b6101ae60048036038101906101a991906125be565b610dd1565b005b6101b86110bc565b6040516101c5919061260d565b60405180910390f35b6101e860048036038101906101e39190612628565b6110e5565b6040516101f591906127a7565b60405180910390f35b610218600480360381019061021391906127c9565b611414565b005b610234600480360381019061022f9190612884565b611813565b6040516102419190612333565b60405180910390f35b610264600480360381019061025f91906120a9565b611adb565b005b610280600480360381019061027b91906120a9565b611e03565b005b6060818073ffffffffffffffffffffffffffffffffffffffff163373ffffffffffffffffffffffffffffffffffffffff1614806102c557506102c48133611813565b5b806102d557506102d4816105e2565b5b610314576040517f08c379a000000000000000000000000000000000000000000000000000000000815260040161030b90612921565b60405180910390fd5b600260008473ffffffffffffffffffffffffffffffffffffffff1673ffffffffffffffffffffffffffffffffffffffff168152602001908152602001600020805480602002602001604051908101604052809291908181526020016000905b828210156105d657838290600052602060002090600502016040518060c00160405290816000820180546103a690612970565b80601f01602080910402602001604051908101604052809291908181526020018280546103d290612970565b801561041f5780601f106103f45761010080835404028352916020019161041f565b820191906000526020600020905b81548152906001019060200180831161040257829003601f168201915b5050505050815260200160018201805461043890612970565b80601f016020809104026020016040519081016040528092919081815260200182805461046490612970565b80156104b15780601f10610486576101008083540402835291602001916104b1565b820191906000526020600020905b81548152906001019060200180831161049457829003601f168201915b50505050508152602001600282015481526020016003820160009054906101000a900473ffffffffffffffffffffffffffffffffffffffff1673ffffffffffffffffffffffffffffffffffffffff1673ffffffffffffffffffffffffffffffffffffffff1681526020016003820160149054906101000a900460ff1615151515815260200160048201805461054590612970565b80601f016020809104026020016040519081016040528092919081815260200182805461057190612970565b80156105be5780601f10610593576101008083540402835291602001916105be565b820191906000526020600020905b8154815290600101906020018083116105a157829003601f168201915b50505050508152505081526020019060010190610373565b50505050915050919050565b600060019050919050565b818073ffffffffffffffffffffffffffffffffffffffff163373ffffffffffffffffffffffffffffffffffffffff16148061062e575061062d8133611813565b5b8061063e575061063d816105e2565b5b61067d576040517f08c379a000000000000000000000000000000000000000000000000000000000815260040161067490612921565b60405180910390fd5b600260008473ffffffffffffffffffffffffffffffffffffffff1673ffffffffffffffffffffffffffffffffffffffff168152602001908152602001600020805490508210610701576040517f08c379a00000000000000000000000000000000000000000000000000000000081526004016106f8906129ed565b60405180910390fd5b6000600260008573ffffffffffffffffffffffffffffffffffffffff1673ffffffffffffffffffffffffffffffffffffffff168152602001908152602001600020838154811061075457610753612a0d565b5b906000526020600020906005020160030160146101000a81548160ff02191690831515021790555060056040518060a001604052803373ffffffffffffffffffffffffffffffffffffffff1681526020016040518060400160405280600681526020017f44454c455445000000000000000000000000000000000000000000000000000081525081526020014281526020016040518060400160405280601281526020017f5265636f7264206465616374697661746564000000000000000000000000000081525081526020018573ffffffffffffffffffffffffffffffffffffffff16815250908060018154018082558091505060019003906000526020600020906005020160009091909190915060008201518160000160006101000a81548173ffffffffffffffffffffffffffffffffffffffff021916908373ffffffffffffffffffffffffffffffffffffffff16021790555060208201518160010190816108c09190612be8565b506040820151816002015560608201518160030190816108e09190612be8565b5060808201518160040160006101000a81548173ffffffffffffffffffffffffffffffffffffffff021916908373ffffffffffffffffffffffffffffffffffffffff1602179055505050505050565b6000610939611e89565b600042443360405160200161095093929190612d23565b60405160208183030381529060405280519060200120905060016004600083815260200190815260200160002060006101000a81548160ff0219169083151502179055508091505090565b6000811180156109af57506301e133808111155b6109ee576040517f08c379a00000000000000000000000000000000000000000000000000000000081526004016109e590612dac565b60405180910390fd5b60006040518060c001604052803373ffffffffffffffffffffffffffffffffffffffff1681526020018573ffffffffffffffffffffffffffffffffffffffff1681526020018481526020018342610a459190612dfb565b8152602001600115158152602001428152509050600360003373ffffffffffffffffffffffffffffffffffffffff1673ffffffffffffffffffffffffffffffffffffffff16815260200190815260200160002060008573ffffffffffffffffffffffffffffffffffffffff1673ffffffffffffffffffffffffffffffffffffffff16815260200190815260200160002081908060018154018082558091505060019003906000526020600020906006020160009091909190915060008201518160000160006101000a81548173ffffffffffffffffffffffffffffffffffffffff021916908373ffffffffffffffffffffffffffffffffffffffff16021790555060208201518160010160006101000a81548173ffffffffffffffffffffffffffffffffffffffff021916908373ffffffffffffffffffffffffffffffffffffffff1602179055506040820151816002019081610ba29190612be8565b506060820151816003015560808201518160040160006101000a81548160ff02191690831515021790555060a08201518160050155505060056040518060a001604052803373ffffffffffffffffffffffffffffffffffffffff1681526020016040518060400160405280600d81526020017f4752414e545f434f4e53454e540000000000000000000000000000000000000081525081526020014281526020018581526020018673ffffffffffffffffffffffffffffffffffffffff16815250908060018154018082558091505060019003906000526020600020906005020160009091909190915060008201518160000160006101000a81548173ffffffffffffffffffffffffffffffffffffffff021916908373ffffffffffffffffffffffffffffffffffffffff1602179055506020820151816001019081610ce89190612be8565b50604082015181600201556060820151816003019081610d089190612be8565b5060808201518160040160006101000a81548173ffffffffffffffffffffffffffffffffffffffff021916908373ffffffffffffffffffffffffffffffffffffffff16021790555050508373ffffffffffffffffffffffffffffffffffffffff163373ffffffffffffffffffffffffffffffffffffffff167f8716ff8199192ae1d265d3d8a241d2e1518c992136ec8f26d77d6815937d70a885604051610daf9190612e68565b60405180910390a350505050565b610dc5611e89565b610dcf6000611f10565b565b6004600082815260200190815260200160002060009054906101000a900460ff16610e31576040517f08c379a0000000000000000000000000000000000000000000000000000000008152600401610e2890612ed6565b60405180910390fd5b610e3a826105e2565b610e79576040517f08c379a0000000000000000000000000000000000000000000000000000000008152600401610e7090612f42565b60405180910390fd5b60056040518060a001604052803373ffffffffffffffffffffffffffffffffffffffff1681526020016040518060400160405280601081526020017f454d455247454e43595f4143434553530000000000000000000000000000000081525081526020014281526020016040518060400160405280601881526020017f456d657267656e637920616363657373206772616e746564000000000000000081525081526020018473ffffffffffffffffffffffffffffffffffffffff16815250908060018154018082558091505060019003906000526020600020906005020160009091909190915060008201518160000160006101000a81548173ffffffffffffffffffffffffffffffffffffffff021916908373ffffffffffffffffffffffffffffffffffffffff1602179055506020820151816001019081610fbd9190612be8565b50604082015181600201556060820151816003019081610fdd9190612be8565b5060808201518160040160006101000a81548173ffffffffffffffffffffffffffffffffffffffff021916908373ffffffffffffffffffffffffffffffffffffffff16021790555050508173ffffffffffffffffffffffffffffffffffffffff163373ffffffffffffffffffffffffffffffffffffffff167f5725311a69709443a953ef018d89d5d74ac37f66827b0cc83deabc24320db0fe8360405161108491906123d3565b60405180910390a360006004600083815260200190815260200160002060006101000a81548160ff0219169083151502179055505050565b60008060009054906101000a900473ffffffffffffffffffffffffffffffffffffffff16905090565b6060600580549050831061112e576040517f08c379a000000000000000000000000000000000000000000000000000000000815260040161112590612fae565b60405180910390fd5b6000828461113c9190612dfb565b90506005805490508111156111545760058054905090505b600084826111629190612fce565b67ffffffffffffffff81111561117b5761117a6123f8565b5b6040519080825280602002602001820160405280156111b457816020015b6111a1611fdc565b8152602001906001900390816111995790505b50905060008590505b8281101561140857600581815481106111d9576111d8612a0d565b5b90600052602060002090600502016040518060a00160405290816000820160009054906101000a900473ffffffffffffffffffffffffffffffffffffffff1673ffffffffffffffffffffffffffffffffffffffff1673ffffffffffffffffffffffffffffffffffffffff16815260200160018201805461125890612970565b80601f016020809104026020016040519081016040528092919081815260200182805461128490612970565b80156112d15780601f106112a6576101008083540402835291602001916112d1565b820191906000526020600020905b8154815290600101906020018083116112b457829003601f168201915b50505050508152602001600282015481526020016003820180546112f490612970565b80601f016020809104026020016040519081016040528092919081815260200182805461132090612970565b801561136d5780601f106113425761010080835404028352916020019161136d565b820191906000526020600020905b81548152906001019060200180831161135057829003601f168201915b505050505081526020016004820160009054906101000a900473ffffffffffffffffffffffffffffffffffffffff1673ffffffffffffffffffffffffffffffffffffffff1673ffffffffffffffffffffffffffffffffffffffff16815250508287836113d99190612fce565b815181106113ea576113e9612a0d565b5b6020026020010181905250808061140090613002565b9150506111bd565b50809250505092915050565b838073ffffffffffffffffffffffffffffffffffffffff163373ffffffffffffffffffffffffffffffffffffffff16148061145557506114548133611813565b5b806114655750611464816105e2565b5b6114a4576040517f08c379a000000000000000000000000000000000000000000000000000000000815260040161149b90612921565b60405180910390fd5b60006040518060c001604052808681526020018581526020014281526020013373ffffffffffffffffffffffffffffffffffffffff168152602001600115158152602001848152509050600260008773ffffffffffffffffffffffffffffffffffffffff1673ffffffffffffffffffffffffffffffffffffffff168152602001908152602001600020819080600181540180825580915050600190039060005260206000209060050201600090919091909150600082015181600001908161156c9190612be8565b5060208201518160010190816115829190612be8565b506040820151816002015560608201518160030160006101000a81548173ffffffffffffffffffffffffffffffffffffffff021916908373ffffffffffffffffffffffffffffffffffffffff16021790555060808201518160030160146101000a81548160ff02191690831515021790555060a08201518160040190816116099190612be8565b50505060056040518060a001604052803373ffffffffffffffffffffffffffffffffffffffff1681526020016040518060400160405280600681526020017f4352454154450000000000000000000000000000000000000000000000000000815250815260200142815260200186604051602001611687919061311e565b60405160208183030381529060405281526020018873ffffffffffffffffffffffffffffffffffffffff16815250908060018154018082558091505060019003906000526020600020906005020160009091909190915060008201518160000160006101000a81548173ffffffffffffffffffffffffffffffffffffffff021916908373ffffffffffffffffffffffffffffffffffffffff160217905550602082015181600101908161173a9190612be8565b5060408201518160020155606082015181600301908161175a9190612be8565b5060808201518160040160006101000a81548173ffffffffffffffffffffffffffffffffffffffff021916908373ffffffffffffffffffffffffffffffffffffffff16021790555050503373ffffffffffffffffffffffffffffffffffffffff168673ffffffffffffffffffffffffffffffffffffffff167fd70a982e4699a479ef5665002773abe527b13f9191b809d0f0205225e7ff5f8a864260405161180392919061315a565b60405180910390a3505050505050565b600080600360008573ffffffffffffffffffffffffffffffffffffffff1673ffffffffffffffffffffffffffffffffffffffff16815260200190815260200160002060008473ffffffffffffffffffffffffffffffffffffffff1673ffffffffffffffffffffffffffffffffffffffff168152602001908152602001600020805480602002602001604051908101604052809291908181526020016000905b82821015611a5157838290600052602060002090600602016040518060c00160405290816000820160009054906101000a900473ffffffffffffffffffffffffffffffffffffffff1673ffffffffffffffffffffffffffffffffffffffff1673ffffffffffffffffffffffffffffffffffffffff1681526020016001820160009054906101000a900473ffffffffffffffffffffffffffffffffffffffff1673ffffffffffffffffffffffffffffffffffffffff1673ffffffffffffffffffffffffffffffffffffffff16815260200160028201805461199190612970565b80601f01602080910402602001604051908101604052809291908181526020018280546119bd90612970565b8015611a0a5780601f106119df57610100808354040283529160200191611a0a565b820191906000526020600020905b8154815290600101906020018083116119ed57829003601f168201915b50505050508152602001600382015481526020016004820160009054906101000a900460ff16151515158152602001600582015481525050815260200190600101906118b2565b50505050905060005b8151811015611ace57818181518110611a7657611a75612a0d565b5b6020026020010151608001518015611aab575042828281518110611a9d57611a9c612a0d565b5b602002602001015160600151115b15611abb57600192505050611ad5565b8080611ac690613002565b915050611a5a565b5060009150505b92915050565b6000600360003373ffffffffffffffffffffffffffffffffffffffff1673ffffffffffffffffffffffffffffffffffffffff16815260200190815260200160002060008373ffffffffffffffffffffffffffffffffffffffff1673ffffffffffffffffffffffffffffffffffffffff168152602001908152602001600020905060005b8180549050811015611dfe57818181548110611b7d57611b7c612a0d565b5b906000526020600020906006020160040160009054906101000a900460ff1615611deb576000828281548110611bb657611bb5612a0d565b5b906000526020600020906006020160040160006101000a81548160ff02191690831515021790555060056040518060a001604052803373ffffffffffffffffffffffffffffffffffffffff1681526020016040518060400160405280600e81526020017f5245564f4b455f434f4e53454e5400000000000000000000000000000000000081525081526020014281526020016040518060400160405280600f81526020017f436f6e73656e74207265766f6b6564000000000000000000000000000000000081525081526020018573ffffffffffffffffffffffffffffffffffffffff16815250908060018154018082558091505060019003906000526020600020906005020160009091909190915060008201518160000160006101000a81548173ffffffffffffffffffffffffffffffffffffffff021916908373ffffffffffffffffffffffffffffffffffffffff1602179055506020820151816001019081611d229190612be8565b50604082015181600201556060820151816003019081611d429190612be8565b5060808201518160040160006101000a81548173ffffffffffffffffffffffffffffffffffffffff021916908373ffffffffffffffffffffffffffffffffffffffff16021790555050508273ffffffffffffffffffffffffffffffffffffffff163373ffffffffffffffffffffffffffffffffffffffff167febecee2d3f2ea272f73dd9d9ccc0bacd11280d61240332cbcd8a68173ae5cc2c60405160405180910390a3611dfe565b8080611df690613002565b915050611b5e565b505050565b611e0b611e89565b600073ffffffffffffffffffffffffffffffffffffffff168173ffffffffffffffffffffffffffffffffffffffff1603611e7d5760006040517f1e4fbdf7000000000000000000000000000000000000000000000000000000008152600401611e74919061260d565b60405180910390fd5b611e8681611f10565b50565b611e91611fd4565b73ffffffffffffffffffffffffffffffffffffffff16611eaf6110bc565b73ffffffffffffffffffffffffffffffffffffffff1614611f0e57611ed2611fd4565b6040517f118cdaa7000000000000000000000000000000000000000000000000000000008152600401611f05919061260d565b60405180910390fd5b565b60008060009054906101000a900473ffffffffffffffffffffffffffffffffffffffff169050816000806101000a81548173ffffffffffffffffffffffffffffffffffffffff021916908373ffffffffffffffffffffffffffffffffffffffff1602179055508173ffffffffffffffffffffffffffffffffffffffff168173ffffffffffffffffffffffffffffffffffffffff167f8be0079c531659141344cd1fd0a4f28419497f9722a3daafe3b4186f6b6457e060405160405180910390a35050565b600033905090565b6040518060a00160405280600073ffffffffffffffffffffffffffffffffffffffff168152602001606081526020016000815260200160608152602001600073ffffffffffffffffffffffffffffffffffffffff1681525090565b6000604051905090565b600080fd5b600080fd5b600073ffffffffffffffffffffffffffffffffffffffff82169050919050565b60006120768261204b565b9050919050565b6120868161206b565b811461209157600080fd5b50565b6000813590506120a38161207d565b92915050565b6000602082840312156120bf576120be612041565b5b60006120cd84828501612094565b91505092915050565b600081519050919050565b600082825260208201905092915050565b6000819050602082019050919050565b600081519050919050565b600082825260208201905092915050565b60005b8381101561213c578082015181840152602081019050612121565b60008484015250505050565b6000601f19601f8301169050919050565b600061216482612102565b61216e818561210d565b935061217e81856020860161211e565b61218781612148565b840191505092915050565b6000819050919050565b6121a581612192565b82525050565b6121b48161206b565b82525050565b60008115159050919050565b6121cf816121ba565b82525050565b600060c08301600083015184820360008601526121f28282612159565b9150506020830151848203602086015261220c8282612159565b9150506040830151612221604086018261219c565b50606083015161223460608601826121ab565b50608083015161224760808601826121c6565b5060a083015184820360a086015261225f8282612159565b9150508091505092915050565b600061227883836121d5565b905092915050565b6000602082019050919050565b6000612298826120d6565b6122a281856120e1565b9350836020820285016122b4856120f2565b8060005b858110156122f057848403895281516122d1858261226c565b94506122dc83612280565b925060208a019950506001810190506122b8565b50829750879550505050505092915050565b6000602082019050818103600083015261231c818461228d565b905092915050565b61232d816121ba565b82525050565b60006020820190506123486000830184612324565b92915050565b61235781612192565b811461236257600080fd5b50565b6000813590506123748161234e565b92915050565b6000806040838503121561239157612390612041565b5b600061239f85828601612094565b92505060206123b085828601612365565b9150509250929050565b6000819050919050565b6123cd816123ba565b82525050565b60006020820190506123e860008301846123c4565b92915050565b600080fd5b600080fd5b7f4e487b7100000000000000000000000000000000000000000000000000000000600052604160045260246000fd5b61243082612148565b810181811067ffffffffffffffff8211171561244f5761244e6123f8565b5b80604052505050565b6000612462612037565b905061246e8282612427565b919050565b600067ffffffffffffffff82111561248e5761248d6123f8565b5b61249782612148565b9050602081019050919050565b82818337600083830152505050565b60006124c66124c184612473565b612458565b9050828152602081018484840111156124e2576124e16123f3565b5b6124ed8482856124a4565b509392505050565b600082601f83011261250a576125096123ee565b5b813561251a8482602086016124b3565b91505092915050565b60008060006060848603121561253c5761253b612041565b5b600061254a86828701612094565b935050602084013567ffffffffffffffff81111561256b5761256a612046565b5b612577868287016124f5565b925050604061258886828701612365565b9150509250925092565b61259b816123ba565b81146125a657600080fd5b50565b6000813590506125b881612592565b92915050565b600080604083850312156125d5576125d4612041565b5b60006125e385828601612094565b92505060206125f4858286016125a9565b9150509250929050565b6126078161206b565b82525050565b600060208201905061262260008301846125fe565b92915050565b6000806040838503121561263f5761263e612041565b5b600061264d85828601612365565b925050602061265e85828601612365565b9150509250929050565b600081519050919050565b600082825260208201905092915050565b6000819050602082019050919050565b600060a0830160008301516126ac60008601826121ab565b50602083015184820360208601526126c48282612159565b91505060408301516126d9604086018261219c565b50606083015184820360608601526126f18282612159565b915050608083015161270660808601826121ab565b508091505092915050565b600061271d8383612694565b905092915050565b6000602082019050919050565b600061273d82612668565b6127478185612673565b93508360208202850161275985612684565b8060005b8581101561279557848403895281516127768582612711565b945061278183612725565b925060208a0199505060018101905061275d565b50829750879550505050505092915050565b600060208201905081810360008301526127c18184612732565b905092915050565b600080600080608085870312156127e3576127e2612041565b5b60006127f187828801612094565b945050602085013567ffffffffffffffff81111561281257612811612046565b5b61281e878288016124f5565b935050604085013567ffffffffffffffff81111561283f5761283e612046565b5b61284b878288016124f5565b925050606085013567ffffffffffffffff81111561286c5761286b612046565b5b612878878288016124f5565b91505092959194509250565b6000806040838503121561289b5761289a612041565b5b60006128a985828601612094565b92505060206128ba85828601612094565b9150509250929050565b600082825260208201905092915050565b7f556e617574686f72697a65642061636365737300000000000000000000000000600082015250565b600061290b6013836128c4565b9150612916826128d5565b602082019050919050565b6000602082019050818103600083015261293a816128fe565b9050919050565b7f4e487b7100000000000000000000000000000000000000000000000000000000600052602260045260246000fd5b6000600282049050600182168061298857607f821691505b60208210810361299b5761299a612941565b5b50919050565b7f496e76616c6964207265636f726420696e646578000000000000000000000000600082015250565b60006129d76014836128c4565b91506129e2826129a1565b602082019050919050565b60006020820190508181036000830152612a06816129ca565b9050919050565b7f4e487b7100000000000000000000000000000000000000000000000000000000600052603260045260246000fd5b60008190508160005260206000209050919050565b60006020601f8301049050919050565b600082821b905092915050565b600060088302612a9e7fffffffffffffffffffffffffffffffffffffffffffffffffffffffffffffffff82612a61565b612aa88683612a61565b95508019841693508086168417925050509392505050565b6000819050919050565b6000612ae5612ae0612adb84612192565b612ac0565b612192565b9050919050565b6000819050919050565b612aff83612aca565b612b13612b0b82612aec565b848454612a6e565b825550505050565b600090565b612b28612b1b565b612b33818484612af6565b505050565b5b81811015612b5757612b4c600082612b20565b600181019050612b39565b5050565b601f821115612b9c57612b6d81612a3c565b612b7684612a51565b81016020851015612b85578190505b612b99612b9185612a51565b830182612b38565b50505b505050565b600082821c905092915050565b6000612bbf60001984600802612ba1565b1980831691505092915050565b6000612bd88383612bae565b9150826002028217905092915050565b612bf182612102565b67ffffffffffffffff811115612c0a57612c096123f8565b5b612c148254612970565b612c1f828285612b5b565b600060209050601f831160018114612c525760008415612c40578287015190505b612c4a8582612bcc565b865550612cb2565b601f198416612c6086612a3c565b60005b82811015612c8857848901518255600182019150602085019450602081019050612c63565b86831015612ca55784890151612ca1601f891682612bae565b8355505b6001600288020188555050505b505050505050565b6000819050919050565b612cd5612cd082612192565b612cba565b82525050565b60008160601b9050919050565b6000612cf382612cdb565b9050919050565b6000612d0582612ce8565b9050919050565b612d1d612d188261206b565b612cfa565b82525050565b6000612d2f8286612cc4565b602082019150612d3f8285612cc4565b602082019150612d4f8284612d0c565b601482019150819050949350505050565b7f496e76616c6964206475726174696f6e00000000000000000000000000000000600082015250565b6000612d966010836128c4565b9150612da182612d60565b602082019050919050565b60006020820190508181036000830152612dc581612d89565b9050919050565b7f4e487b7100000000000000000000000000000000000000000000000000000000600052601160045260246000fd5b6000612e0682612192565b9150612e1183612192565b9250828201905080821115612e2957612e28612dcc565b5b92915050565b6000612e3a82612102565b612e4481856128c4565b9350612e5481856020860161211e565b612e5d81612148565b840191505092915050565b60006020820190508181036000830152612e828184612e2f565b905092915050565b7f496e76616c696420656d657267656e63792061636365737320636f6465000000600082015250565b6000612ec0601d836128c4565b9150612ecb82612e8a565b602082019050919050565b60006020820190508181036000830152612eef81612eb3565b9050919050565b7f456d657267656e637920616363657373206e6f74206163746976650000000000600082015250565b6000612f2c601b836128c4565b9150612f3782612ef6565b602082019050919050565b60006020820190508181036000830152612f5b81612f1f565b9050919050565b7f496e76616c696420737461727420696e64657800000000000000000000000000600082015250565b6000612f986013836128c4565b9150612fa382612f62565b602082019050919050565b60006020820190508181036000830152612fc781612f8b565b9050919050565b6000612fd982612192565b9150612fe483612192565b9250828203905081811115612ffc57612ffb612dcc565b5b92915050565b600061300d82612192565b91507fffffffffffffffffffffffffffffffffffffffffffffffffffffffffffffffff820361303f5761303e612dcc565b5b600182019050919050565b600081905092915050565b7f4372656174656420000000000000000000000000000000000000000000000000600082015250565b600061308b60088361304a565b915061309682613055565b600882019050919050565b60006130ac82612102565b6130b6818561304a565b93506130c681856020860161211e565b80840191505092915050565b7f207265636f726400000000000000000000000000000000000000000000000000600082015250565b600061310860078361304a565b9150613113826130d2565b600782019050919050565b60006131298261307e565b915061313582846130a1565b9150613140826130fb565b915081905092915050565b61315481612192565b82525050565b600060408201905081810360008301526131748185612e2f565b9050613183602083018461314b565b939250505056fea26469706673582212208c89de94294b7a1863856ac5c27d78947fef9cf2ceb368b7b8e6e4f7f9677eb864736f6c63430008140033",
  "linkReferences": {},
  "deployedLinkReferences": {}
}